:1000000000E3022059190100C5DE01002D1901008D
:100010002D1901002D1901002D190100000000000B
:100020000000000000000000000000003915010081
:100030002D19010000000000D51401002D19010048
:10004000F5150100350A0200F5150100F51501004E
:10005000F5150100F5150100F5150100F515010074
:10006000EB090200F5150100F51501001F0A020059
:10007000F5150100F5150100F5150100F515010054
:10008000F5150100F5150100F5150100F515010044
:10009000F5150100F5150100F5150100F515010034
:1000A000F5150100F5150100F5150100F515010024
:1000B000F5150100F5150100F5150100F515010014
:1000C000F5150100F5150100F5150100F515010004
:1000D000F5150100F5150100F5150100F5150100F4
:1000E000F5150100F5150100F5150100F5150100E4
:1000F000F5150100F5150100F5150100F5150100D4
:1001000053B94AB9002908BF00281CBF4FF0FF317E
:100110004FF0FF3000F00CB8ADF1080C6DE904CEE3
:100120000CF054F9DDF804E0DDE9022304B0704777
:10013000704700BF2DE9F00791E8F807B2E8021018
:100140005B1854EB0C04B2E802104D4156EB0C0660
:10015000B2E802104F4158EB0C08B2E8021059EB1C
:1001600001095AEB0C0A80E8F80780410130BDE82C
:10017000F00770472DE9F00791E8F807B2E80210A0
:100180005B1A74EB0C04B2E802108D4176EB0C069E
:10019000B2E802108F4178EB0C08B2E8021079EB5C
:1001A00001097AEB0C0A80E8F80780414042BDE87B
:1001B000F00770472DE9F007524290E87800B1E867
:1001C00080071740DB1918EA020854EB080419EA03
:1001D000020955EB09051AEA020A56EB0A0678C02D
:1001E00090E87800B1E8800717407B4118EA0208E0
:1001F00054EB080419EA020955EB09051AEA020A48
:1002000056EB0A0678C080410130BDE8F007704720
:100210002DE9F007524290E87800B1E880071740D6
:10022000DB1B18EA020874EB080419EA020975EBF3
:1002300009051AEA020A76EB0A0678C090E8780007
:10024000B1E880071740BB4118EA020874EB0804C4
:1002500019EA020975EB09051AEA020A76EB0A06A1
:1002600078C080414042BDE8F00770472DE9F001B9
:1002700052424FF0040890E8300091E8C000A31B00
:100280001340E41AF618EB1B1340ED1AFF1830C0A8
:10029000C0C1B8F10108EED1BDE8F001704700BF60
:1002A00000B592E8DC072DE9DC07B1E8805702B41D
:1002B000A7FB02510A95A8FB020BE7FB6310E9FBC1
:1002C00062B00B91A8FB0351EAFB6201E7FB64B546
:1002D000E7FB6605E8FB6615CDF830B0A9FB03B671
:1002E000EAFB6316ECFB6356E8FB640BE9FB641B5B
:1002F000EAFB645BECFB646B0D90ACFB0230059C8D
:10030000EEFB6250E9FB6460EAFB64B0E7FB64313A
:10031000E8FB6451069CE8FB6461E9FB64B1EAFB1D
:1003200064010E93A7FB0432079CE7FB6462E8FBC1
:1003300064B2E9FB6402EAFB6412049CE9FB6453C7
:10034000EAFB6463089CE7FB64B3E8FB6403E9FB36
:100350006413EAFB64230F955DF8049B99E800069B
:10036000DDF80080A9FB0854EAFB68B4DDF81080D2
:10037000ECFB6804EEFB6814E9FB6824EAFB6834D4
:10038000DDF80480EEFB6865E9FB68B5EAFB68050B
:10039000DDF81480ECFB6815EEFB6825E9FB683599
:1003A000EAFB68450F96DDF80880AEFB0876E9FBAE
:1003B0006806EAFB6816DDF81880ECFB6826EEFBA1
:1003C0006836E9FB6846EAFB6856DDF80C80ECFB12
:1003D00068B7EEFB6807E9FB6817EAFB6827DDF8FA
:1003E0001C80ECFB6837EEFB6847E9FB6857EAFBCB
:1003F000686708B000BD00BF2DE9F14F87B0FFF777
:100400004FFFDDF81C8008F1200888E8FF00FFBCE2
:1004100087E87F08BDE8F08F00B591E89857A3FB07
:1004200003520195A3FB0401E3FB6420E3FB671087
:100430000292A3FB0752E3FB6802E4FB6415E3FBB3
:100440006805E3FB69250391A4FB07B6E3FB692676
:10045000E3FB6A56E4FB670BE4FB682BE3FB6A5B98
:10046000E3FB6C6B0490A4FB0810E4FB6950E3FB16
:100470006C60E3FB6EB0E7FB6721E4FB6951E4FBD2
:100480006A61E3FB6EB1E4FB6E010592A7FB0832E3
:10049000E4FB6A62E4FB6CB2E4FB6E02E7FB6E1203
:1004A000E7FB6853E7FB6963E4FB6CB3E7FB6C03B2
:1004B000E7FB6E13E8FB6E230695A7FB0954E7FBE9
:1004C0006AB4E7FB6C04E8FB6C14E8FB6E24E9FB00
:1004D0006E34E8FB6865E7FB6AB5E8FB6A05E8FB94
:1004E0006C15E9FB6C25E9FB6E35EAFB6E4507965A
:1004F000A8FB0976E8FB6A06E9FB6A16E9FB6C26AD
:10050000EAFB6C36EAFB6E46ECFB6E56E8FB69B71D
:10051000E9FB6907E9FB6A17EAFB6A27EAFB6C3724
:10052000ECFB6C47ECFB6E57EEFB6E6700BD00BF4B
:100530002DE9F14F87B0FFF76FFFDDF81C8008F160
:10054000200888E8FF00FFBC87E87F08BDE8F08F3F
:1005500030B44FF0000310F8014B11F8015B013A81
:1005600084EA050443EA0403F5D1A3F101034FEA49
:10057000D37030BC704700BF4FF0000310F8012B60
:10058000013943EA0203F9D1A3F101034FEAD37021
:10059000704700BF30B411F8014B12F8015B6C409A
:1005A00000F8014B013BF6D130BC70472DE9F00754
:1005B00091E8F807B2E802105B1854EB0C04B2E8BB
:1005C00002104D4156EB0C06B2E802104F4158EBB9
:1005D0000C08B2E8021059EB01095AEB0C0A8941E8
:1005E000B3F1FF3374F1FF3475F1FF3576F1000696
:1005F00077F1000778F1000879F101097AF1FF3A03
:1006000051F100015B184C414D4156F1000657F184
:10061000000758F1000859EBD1795AEB010A80E83C
:10062000F807BDE8F00770472DE9F00791E8F807F3
:10063000B2E802105B1A74EB0C04B2E802108D41B0
:1006400076EB0C06B2E802108F4178EB0C08B2E8AA
:10065000021079EB01097AEB0C0A89415B184C41D5
:100660004D4156F1000657F1000758F1000859EBCB
:10067000D1795AEB010A80E8F807BDE8F007704726
:1006800018EB040859EB05095AEB060A5BEB070B5C
:100690005FF0000C4CF1000C18EB050859EB060953
:1006A0005AEB070A5BEB070B50EB0C005FF0000CFA
:1006B00051EB0C0152EB0C0263414CF1000CB8EB16
:1006C000070879F100097AF1000A7BEB040BA841D5
:1006D000B141A241B3416CF1000CBBEB050BB04141
:1006E000B941AA41BB416CF1000C4CF001068CF001
:1006F000020718EB060859EB6C095AEB6C0A7BEB06
:100700006C0B70EB6C0471EB6C0572EB670653EBD2
:100710006C076CEB6C0C18EB0C0059EB0C015AEBF2
:100720000C025BF1000354F1000455F1000556EB97
:10073000DC7657EB0C0770472DE9F14F87B0FFF7D8
:10074000AFFDDDF81080DDF81490DDF818A0FFF79C
:1007500097FFBDE8000FFFF793FF03B05DF8048B30
:1007600088E8FF00BDE8F08F2DE9F14F87B0FFF773
:1007700053FEDDF81080DDF81490DDF818A0FFF7C7
:100780007FFFBDE8000FFFF77BFF03B05DF8048B30
:1007900088E8FF00BDE8F08F0EB51048017A8DF8AB
:1007A0000110C1798DF800108179ADF804104079FD
:1007B000ADF80200684606F093FA08B1B32108E0EC
:1007C00007480068029002A80EF0E6FE002803D059
:1007D000B721032000F00EF90EBD00006C110020BF
:1007E000E00A00002DE9F041194E04461746F07862
:1007F0000D4678B1687A68B120682522C01C20F0C7
:1008000003002060697A07B1002000F085FD2168AF
:1008100008442060287B80B1F07870B1687A60B1BC
:100820002068C01D20F007002060297B07B1002050
:1008300002F064FC216808442060B068002805D0FC
:100840000FB92068B060206828302060BDE8F081D2
:100850002000002010B528B1142204490FF0CBFD70
:10086000002010BD6FF0150010BD0000000B00004F
:1008700070B56FF02C0590B9204C607808B1A811C4
:1008800070BD01B36FF01500002AF9D01C4B01298F
:1008900007D0032908D0052916D007291CD02846DF
:1008A00070BD107818701BE091780029F8D0D178CD
:1008B0000029F5D011781B29F2D351781B29EFD3E9
:1008C0001068C3F805000BE0E17811B11178022936
:1008D000E6D31078587203E01188FF29E0D8197325
:1008E0000122074900200BF0C1FEB0F5803F02DB7A
:1008F0006FF00B0070BD0121A17070BD20000020C1
:100900006C11002010B5064C607820B106F0EEFCAA
:1009100020780BF0DBFC00F04BFD0020607010BD78
:100920002000002070B50C46050002D00CB1600715
:1009300002D06FF0150070BD00F0F8F8A8B128469D
:100940000BF08AFC0A4D00220A49287020460BF061
:100950008DFE0FF022FB2878A96806F0AFFCFFF7A8
:100960001BFF01206870002070BD4FF0FF3070BD8C
:10097000200000206C11002030B589B005000CD09B
:100980000BF012FC4FF0FF3420B10AF0B5FDB0F5CA
:10099000FA7F05D9204609B030BD6FF01500FAE79F
:1009A000104C1148656000F06DF900206070A07077
:1009B000E0700146A0601E2268460FF096FD1E22E0
:1009C0000A4968460FF017FD1E22694608480FF0D5
:1009D00012FDEFF3108472B600F0F8FC04B962B6B1
:1009E0000020D8E72000002099070000E20A00005C
:1009F0006C1100200EB572B6154A5568DDB10022A3
:100A000003466E460A2403E0B0FBF4F0521CD2B257
:100A10000028F9D1B0540AE0D8B2B0FBF4F7B3FB28
:100A2000F4F304FB1700521ED2B23030B054002A47
:100A3000F2D13046A847BFF34F8F06480168064AF7
:100A400001F4E06111430160BFF34F8F00BFFDE788
:100A5000200000200CED00E00400FA0510B5074C62
:100A6000A0786178084302D04FF0FF3010BD06F047
:100A70004DFC0120E070002010BD0000200000208F
:100A8000064810B581784078014302D04FF0FF301E
:100A900010BD06F03BFA002010BD00002000002031
:100AA000064810B581784078014302D04FF0FF30FE
:100AB00010BD0EF058FE002010BD000020000020E8
:100AC000064810B581784078014302D04FF0FF30DE
:100AD00010BD0EF06CFE002010BD000020000020B4
:100AE000010001000000001B1B03020300000800BE
:100AF00000000000000000000000000000000000F6
:100B00008DDC02CB4926C6471A6A3D4E2FD1A4F28E
:100B10002E381B75014A526810470000E00F002074
:100B2000014A926810470000E00F00200448416825
:100B300019B1806808B1012070470020704700009B
:100B4000E00F002002490DC881E80D000020704729
:100B5000E00F00202DE9F0411C490546001D4FF42F
:100B600081760860194801F0DFFD0446022804D0B0
:100B7000042C07D0082C21D024E0144928460BF07F
:100B8000DDFD1FE0114928460BF03DFEB04203D3C6
:100B900072210820FFF72EFF0028E3D02F7895F868
:100BA0000280384600F014F80028DBD03E2F09D12F
:100BB000404600F01FF80028D4D003E0034928463F
:100BC0000BF0EAFD2046BDE8F0810000EC0F0020AC
:100BD000402803D2401EC1B2054805E0FF2805D0D9
:100BE0004038C1B2024808300BF0C8BF012070473E
:100BF0002C000020401EC1B201480BF0BFBF000016
:100C00003C000020024902680A6140684861704760
:100C10002C000020054902680A60406842F48C22DA
:100C20000A60034A10434860704700002C0000200F
:100C3000F8074002024902688A604068C86070474D
:100C40002C00002007484FF0FF3100220160C90C42
:100C5000416000F108011F200A604A600831C1E9C3
:100C6000000270472C00002010B5FFF7EBFF0EF0DC
:100C7000F0FC04460248006800B18047204610BDE1
:100C80004400002001490860704700004400002033
:100C90002DE9F04104464FF08050D0F8A0701F4D70
:100CA0001E4E103D1022002120460FF01EFC102287
:100CB000002104F110000FF018FC2868401C08D136
:100CC0006868401C05D1A868401C02D1E868401C37
:100CD00007D028686A68A968EB6820616261A16131
:100CE000E361002000F0C4FC8743F80713D13068AB
:100CF000401C08D17068401C05D1B068401C02D16E
:100D0000F068401C07D032687068B168F3682260F0
:100D10006060A160E3600020BDE8F08190000010F9
:100D200038B54FF0805104462248D1F8A010214D2B
:100D30000268143D521C04D14268D2431204120CC2
:100D400035D0C90733D001684068ADF80000C4F859
:100D50000110BDF80000A4F80500A07940F0C00023
:100D6000A0712868401C0CD06868401C09D0A86895
:100D7000401C06D0E868401C03D0002000F078FC3E
:100D800040B110220021E01D0FF0AFFB01202070C8
:100D9000002038BD2A686968A868EB68C4F8072095
:100DA000C4F80B10C4F80F00C4F81330EEE70020AD
:100DB000EDE70000A4000010022101804180002125
:100DC00001718D2141714FF43771C18001498160FA
:100DD00000207047CB4926C603480068002802D08F
:100DE00002790021017170474C00002030B50346A4
:100DF0004FEA020003EB400464898C4209D09C78DE
:100E0000401CB0FBF4F504FB1500C0B29042F1D1D8
:100E1000FF2030BD1CB504460022104664F3174085
:100E2000CDE900200BE000BFBDF80400214600F032
:100E3000C5F820B140F2D7211720FFF7DBFD684647
:100E400000F06CF80028EFD01CBD0000084A10B577
:100E500052F82140014620460CF0CDF90146FF280A
:100E600004D02046BDE810400CF0D9B9002010BDD8
:100E70004C0000207FB504460D460878497888422A
:100E800004D940F25F111720FFF7B4FD114E03940F
:100E9000F4B13078022803D029460020FFF7EAFF9A
:100EA0000DF10C0000F0AEF80B496B78D1E90002AF
:100EB0008968009063F31F62CDE901216946002033
:100EC00000F0C2F800F00AF8B06804B0001B70BD72
:100ED0000020E7E7480000201811000010B50E4C74
:100EE0002078012813D0032802D04FF4A37105E025
:100EF000D4E90201814204D040F249111720FFF7E2
:100F000079FDFFF769FF04202070002010BD02204A
:100F10002070A06810BD00004800002010B50446F5
:100F200080790E4951F82000A8B14FF6F073E179AD
:100F3000827891420FD24A1CE27100EB4102528941
:100F40009A42F4D000EB41025289A2800CF067F97A
:100F50002060002010BD022010BD00004C000020C9
:100F60002DE9F04107464FF6FF703880124850F8DF
:100F70002140ECB1A5782079B0FBF5F105FB110615
:100F800032464FF6F0712046FFF730FF0246FF2849
:100F90000ED0A81B1044B0FBF5F105FB1100217920
:100FA000084481B239802046BDE8F0410CF01DB9FB
:100FB0000020BDE8F08100004C0000202DE9F04148
:100FC00006460F4850F82150314628460CF013F9D8
:100FD0000446FF2812D0D5F8060021464FEA3047D4
:100FE00028460CF01CF901463046B84705EB440191
:100FF0004FF6F07048810020BDE8F0810320FBE748
:101000004C00002010B50F490023B0B10A78022A25
:1010100002D04FF4837106E003220A70026854077D
:1010200004D040F20B111720FFF7E4FC8C688A60B3
:101030002244CA6002604B6010BD01200870CB6082
:101040008B6010BD480000202DE9F041314D2E7815
:10105000012E04D0032E02D04FF4907137E08A792C
:10106000082A02D94FF4917131E0CB79002B4ED090
:101070005F000A37AB68022A3B4401D9144601E0FD
:101080004FF002042344A3F1010301D9144601E007
:101090004FF00204A4F1010423EA04038C881444F1
:1010A000A2F10102A4F1010424EA02044FF6FF7246
:1010B000944202D340F22D1109E0032E23D1154EA4
:1010C000DA1B361D56F8207027B14FF4997117209E
:1010D000FFF790FC46F820201480C879907001201A
:1010E000D070087A107108684FF6F076000CD08046
:1010F00008881081002003E002EB4007401C7E813D
:10110000CF798742F8D8C87900FB0430A860BDE8E1
:10111000F0810000480000208FEA0000A0020800D3
:10112000000000002DE9FF4F244C064681B02068E6
:101130009A46934650B1017AB14203D9406850F8BB
:10114000260038B1032005B0BDE8F08FA521182096
:10115000FFF750FC194602980CF083F88046584679
:101160000E990CF074F8054608EB0500001D87B2D7
:101170002068A146394600680BF0D2FF04001AD05F
:10118000678025802946201D0E9D07465A46092363
:1011900000950BF03FFF2088414638440A23029A0D
:1011A000CDF800A00BF036FFD9F80000406840F8F9
:1011B00026400020C7E70120C5E7000058000020B6
:1011C00070B5144C23688BB1197A814212D95A68D0
:1011D00052F8201071B1002542F820504A88186852
:1011E0000BF0F6FF216800200A7A0BE0C6211820D8
:1011F000FFF700FC032070BD4B6853F8203033B973
:10120000401CC0B28242F7D808680BF0D6FF00201D
:1012100070BD0000580000202DE9F0410D4604008B
:1012200090464FF0000606D00027A00705D0862183
:101230001820FFF7DFFB0127F7E7CDB111460020AB
:101240000BF09FFF0C3000EB85068FB90A4F04F1BD
:101250000C00AA003C602572606000EB85002060F5
:10126000002160680FF041F9414638680BF089FFB2
:101270003046BDE8F08100005800002070B5084DF0
:10128000286800280AD0002404E02046FFF798FFD1
:10129000641CE4B22868007AA042F6D870BD000051
:1012A00058000020094910B502460968002049B1DC
:1012B0000B7A934205D9496851F82210002900D0D1
:1012C000081D10BDEC211820FFF794FB58000020EA
:1012D0000A4910B502460968002059B10B7A9342B9
:1012E00007D9496851F82210002902D031F8040BBF
:1012F000084410BDFA211820FFF77CFB580000209D
:1013000001484078704700005C00002001484068B8
:10131000704700005C0000202DE9F8430C460746AA
:101320001646252110460D4622460BF0B8FE804693
:1013300057B13846414632462B4600940BF06AFEC0
:1013400003484760047046704046BDE8F8830000DB
:101350005C0000200248427801784068FFF7DCBF5B
:101360005C00002030B50D4901204860821EC1F8A4
:1013700008230B4988600023C1F80032C1F8082314
:10138000084C2360251D28608860C1F8082323606D
:10139000286006490448086030BD000000E00040B5
:1013A00000F0004000F500400000F63F08F5014065
:1013B00010B5FFF7D7FF0BF07CFF03490148086029
:1013C00010BD00000000F63F08F5014010B5FFF722
:1013D000C9FF0BF06EFF00F081F803490148086077
:1013E00010BD00000000F63F08F501402DE9F84F60
:1013F000824637480EF052FFDFF8D4B028B10126FC
:101400000BF10100FF21017000E000264FF4807510
:10141000304C4FF000082F1D01216160C4F800819D
:10142000C4F80481C4F804A52160DFF8AC901CE086
:10143000D9F80000C00618D50E200BF049FFEFF3D5
:101440001080009072B603212046C4F80413294688
:101450000BF04BFF30B9394620460BF046FF08B978
:101460000EF0B3FF009800B962B6294620460BF093
:101470003CFF28B9394620460BF037FF0028D7D06B
:10148000394620460BF031FF0028C5D10025E6B9CA
:101490009BF801008DF80000009800909DF8000076
:1014A00008B1012500E000250BF1010181F8008061
:1014B0000321C4F80813C4F80481C4F800810E2085
:1014C0000BF006FF02480EF000FF2846BDE8F88F3B
:1014D0004403002000E0004010ED00E010B5064895
:1014E0000EF0EFFE18B130211D20FFF783FA0248FD
:1014F0000021417010BD0000440300200648074A47
:10150000818C5288914204D190F8220008B10020C9
:1015100070470120704700008A1100203803002026
:101520000149488070470000380300200848094AF4
:10153000818C5288914209D14FF6FF71818410F855
:10154000221F19B10021017001207047002070474F
:101550008A11002038030020074810F8221F0129B3
:1015600007D00121017005480349008888840120C3
:1015700070470020704700008A11002038030020C7
:101580000649074B8A8C5B889A4205D191F8222044
:1015900012B1016001207047002070478A110020BD
:1015A0003803002009498A8CA2F57F43FF3B02D013
:1015B0000021016007E091F822200449012A02D0AD
:1015C0000160012070470020704700008A11002050
:1015D00001490880704700003803002005490020B9
:1015E00081F822004FF6FF70888403490880488004
:1015F000704700008A1100203803002005498A8CBA
:10160000824205D1002081F822004FF6FF708884C5
:10161000704700008A1100200A4A10B1012807D043
:101620000EE0507860B1D2F802000860D08804E083
:10163000107828B1906808609089888001207047F0
:101640000020704746030020084A012338B10128D2
:1016500004D1137008689060888890817047537037
:101660000868C2F802008888D080704746030020CE
:10167000064910B1012802D005E0487800E008785A
:1016800008B1012070470020704700004603002089
:1016900001490876704700008A09002070B50C46A1
:1016A0000A4905460848086000F03CF918B1DE21F7
:1016B0002720FFF79FF9064801210CF06CF9054837
:1016C000C0E90B5470BD0000B8200000A800002045
:1016D000680900206400002001490120487170471A
:1016E000640000202DE9F84F6B4F0A9C3D78E5BB64
:1016F000DAB3D3B3CCB307F11405C7E90F0185E81A
:101700001C004FF0000A87F805A087F804A087F8AE
:1017100002A087F801A087F803A0A7F80CA0A7F8FB
:101720000EA000F07FF9054600F048F9044606F0E7
:1017300083FA06F01DF894F96E0006F001FBE069EB
:1017400006F0E6FB606906F0D9FB95F8330006F079
:1017500015FC4FF0010B94F86A10002006F06CF9AC
:1017600000287DD04D48006800E013E006F0C8F97D
:101770002088FFF7ADFD78632088FFF793FDB863FD
:1017800094F877008DF80000009800909DF8000014
:10179000A8B902E040F253117BE0206F78B1B5F8B0
:1017A0004A00A98A88420AD1B4F874100122084478
:1017B000A5F84A0094F87600216F09F047FB05F17F
:1017C00080008835364E95E80E1086E80E10816947
:1017D000C6F81910C069C6F81D00883D00F028F948
:1017E0000146208F0BF0D7FEA18E814200D2084621
:1017F000B871B94694F86B1004F12C000CF078F92C
:1018000094F86B1095F82380A78F082900D1042144
:101810000BF0C1FEB8F1000F01D1001D80B287426C
:1018200000D2384689F8070089F8080095F8221098
:1018300089B186F818B0D5E91E01C6E904015746FA
:1018400094F86A000BF0E7FD0346FB221449384682
:10185000009705F0F9FE012000F06AFB114800E056
:1018600013E00068032812D00B2810D046F84AAFC6
:10187000C6F804A0C6F808A00948A98A4A304180E1
:101880002188018095F833100171BDE8F88F4FF47D
:1018900002712720FFF7AEF864000020A8000020A6
:1018A00040090020501500402DE9FC4188460746BC
:1018B00000F0B8F81A4C0546B807616A4E7816D59C
:1018C000A06A30B36289D21C0EF095FDA06A6062F6
:1018D000694601AAA06B0BF01AFB00980BF0B4FA52
:1018E000C8F8000031460122A06B0BF064FAF8073B
:1018F0000DD0D5E920011835401C41F10001C5E9A2
:101900001A0115F81809012808D001202876BDE829
:10191000FC8140F25F412720FFF76CF80020F5E7DB
:10192000640000200448007808B10C207047034987
:101930000020087670470000640000208A0900201B
:10194000124808B5017839B10078012806D04FF463
:1019500008712720FFF74EF800F0C2F900F02EF8CA
:1019600090F877108DF80010009900919DF8001004
:1019700000290AD1016F002907D090F876000022D3
:10198000BDE80840114609F061BA08BD64000020B6
:101990001F2001F8030B044850F8562F0A604268D4
:1019A0004A6080688860704740090020024A938935
:1019B0000343938152691047640000200148406846
:1019C00070470000A0000020014A00215269104722
:1019D0006400002070B5054601291CD8104CA1698F
:1019E0008847C0B12079B0B9012D16D104F110009B
:1019F0000078C10605D4E16A0978C90601D401213D
:101A000000E00021A26A1AB962890AB1C00602D5B3
:101A1000A089014301D0012070BD002070BD0000ED
:101A2000640000200148406888307047A000002012
:101A300010B5FFF7C3FF0446FFF7F4FF0146407FF0
:101A40000B4A25280AD0262808D0897F252905D0C9
:101A500094F86A00042800D1082010BD506890F85E
:101A60005A1294F86A00BDE810400BF0E2BC000086
:101A7000A00000202DE9FF5F8B468146FFF7D2FFD3
:101A80000027664C06468DF808700397019720786A
:101A90003D46022804D040F2E2412720FEF7AAFF8B
:101AA000A07B400606D44020FFF78EFFE08940F07F
:101AB0004000E08196F823004FF00108B9F1000FD3
:101AC0003AD080B105F08EFE05F068FE58B9606A24
:101AD000417841B10078317EC0F3C000884202D124
:101AE00084F8018095E0606A4178618121B1A06B42
:101AF0000BF0E3FAA06200E0A562E08940F4807098
:101B0000E081606AF17D0078C0F38000884207D0F0
:101B100003A800F08BF9E08940F48060E08100E0E8
:101B20000127606A317E0078C0F3C00088420DD181
:101B300002A800F031F909E008B105F04DFEA078E7
:101B4000401CA070E08940F40070E081DFF8CCA078
:101B500096F822000AF13C0A98B1FFF72FFF3049AE
:101B600081F81880D6E91E23C1E9042390F86A00A1
:101B70000BF051FC0346FB2229492846009505F04D
:101B800063FD4FF00008BBF1000F04D1A1780120E4
:101B9000FFF720FF20B106F09DF94FF0010802E0A9
:101BA000002000F0C5F99DF8080018B101A9022035
:101BB000FFF77AFE1A4849464A3027B1B0F80920A3
:101BC000521CA0F8092029B130F8051F491C0180DA
:101BD000A57003E030F8071F491C01800F483C3016
:101BE00001F088F9039840B10BF02EF9DAF80410EF
:101BF000401C057208220BF00AFF019830B1DAF898
:101C000004100572102201980BF001FFB8F1000FCB
:101C100001D000F065F8BDE8FF9F000064000020DF
:101C2000400900202DE9F84388468146FFF7FAFE77
:101C3000294D04462878012804D040F26E4127201F
:101C4000FEF7D8FE207C0026012720B12674002153
:101C50000420FFF7ABFE296A0878C043800709D14A
:101C6000A07D88BB0220FFF7A1FE286A0078C04350
:101C7000800729D0286A407810B10220A07500E0C2
:101C8000A77594F8230098B1FFF798FE13492D7AB1
:101C90000E76D4E92023C1E9042390F86B000BF001
:101CA000BAFB03462A460D493846009605F0CCFC9F
:101CB00038EA090004D000210846FFF78BFE28B15E
:101CC000BDE8F84300F00CB80320D7E7BDE8F843BF
:101CD000002000F0F1B8000064000020400900205E
:101CE00010B505F01FFE05F043FD0E4CE089FFF72F
:101CF0006BFE0D48007E70B10B484A3850F84A1F01
:101D0000C160416801618168416107480222074959
:101D100019300BF090FEE26921796078904700203D
:101D2000207010BD640000208A0900209119000075
:101D3000084810B50078022804D040F24E21272030
:101D4000FEF758FE04490120C872BDE81040FFF7B5
:101D5000C7BF0000640000208A09002030B4044698
:101D60000C48007A0BB1001DC0B23AB9FF2805D16A
:101D700094F86B2094F86A309A4209D021B194F813
:101D80006B1030BC06F0CAB8FF2094F86A10F8E770
:101D900030BC7047640000202DE9F0410746FFF792
:101DA00041FE214C05460126616A087800F00300D7
:101DB00001280CD002280AD003281BD12E74E089F8
:101DC00040F40060E0810120FFF7F0FD12E0487868
:101DD00080B1E18941F40061E181A16A002918D054
:101DE000FB2818D8607920B1BDE8F0412020FFF72A
:101DF000EBBD3E70287E012812D02E76606A4078B6
:101E0000002806D0F5E92001401C41F10001C5E998
:101E10000001BDE8F081207940F010002071F8E762
:101E200000202876EAE700006400002070B505462F
:101E3000FFF7F8FD0446807D002826D002280CD14B
:101E400017482946406B0AF08EFFF8B1D4E91E010D
:101E5000401C41F10001C4E91E010025A575607C0C
:101E6000012670B16574FFF761FB90B10021082075
:101E7000FFF79CFDD4E91E01401C41F10001C4E9BB
:101E80001E01E07D012809D0E67570BD40F2DD310C
:101E900001E04FF47D712720FEF7ACFDE57570BDC4
:101EA0006400002003480078002801D0FFF718BF25
:101EB00070470000640000202DE9F0410746FFF75D
:101EC0007DFD8046FFF7AEFD174C05463A46E06AB9
:101ED000606295F8233001214046FFF73FFF95F8F7
:101EE0002300002668B1206B05F04CFF0F480676F2
:101EF000D5E92012C0E90412216B606A05F0F6FBF7
:101F000004E0606A05F03EFF05F032FC17B9304688
:101F100005F0FEFD002198F86A20084605F0BCFF98
:101F200002202070BDE8F0816400002040090020FC
:101F30002DE9FC470446FFF775FD0546FFF73EFD1A
:101F40004FF000088DF800800646DFF8649195F8A0
:101F5000233022464146FFF701FFA87D0127A9F162
:101F6000200440B101281FD0022830D003283CD0E3
:101F700040F2FF2158E0A0795021ADF804008853C9
:101F80004846FFF7FDFA28B18020216AFFF70EFDD1
:101F90006F742EE06A4601A9606B0BF054FA206260
:101FA00010B195F85D1011B14248206221E09DF812
:101FB000001031B9A0F8008080F8028001210BF0F8
:101FC000EAFCBDF80410206A0BF07FFC11E0B6F8C3
:101FD0005000ADF804006A4601A9606B0BF033FABB
:101FE000206230B940F2E9211EE04846FFF7C8FA06
:101FF000C0B1206A0823017801F0F7010170EA7D81
:1020000003EAC202114301F0FB0101702A7E04239E
:1020100003EA8202114301F0EF010170C94389070D
:1020200005D007E040F2F2212720FEF7E3FCC0785C
:1020300002280FD0606B0AF0ADFF08B101210AE061
:10204000206A0078C043800704D0FFF757FA80F079
:10205000010100E00021206A027842EA01110170CA
:1020600095F8221081B1417871B1206B05F08AFE9C
:10207000104828380776D5E91E12C0E90412216AF3
:10208000206B05F033FB03E005F07CFE05F070FBF0
:1020900096F86B200121002005F0FEFEE770206A13
:1020A000018821828078A0742770BDE8FC87000039
:1020B0008400002068090020311D0000751A00000E
:1020C000251C0000A51E000004494A78824203D95D
:1020D000084490F84201704700207047B01100207A
:1020E00004494A78824203D9084490F84A0170476B
:1020F00000207047B011002004494A78824203D979
:1021000001EB00108230704700207047B0110020B2
:10211000054A01EB410102EB41010268C1F80A21C5
:102120008088A1F80E017047B01100202DE9F04120
:1021300007460024104D19E02046FFF7DDFF03009D
:1021400012D0281990F8420170B904EB440005EB55
:10215000400606F585763A46314618460BF0F6F805
:1021600030462146FFF7D4FF641CE4B26878A042F1
:10217000E2D8BDE8F0810000B011002004494A789F
:10218000824203D901EB0010801C70470020704789
:10219000B011002008494A78824203D90A1892F8FF
:1021A00042210AB10020704700EB400001EB4000E3
:1021B00000F5857070470000B011002010B54FF495
:1021C000C572002105480EF090F905480021017004
:1021D00041704FF46171418010BD0000B0110020CA
:1021E0003C0300200B4B10B55C78844210D9184496
:1021F00090F80201C0EBC000184490F852310B7007
:10220000D0F853111160B0F857019080012010BD33
:10221000002010BDB0110020014840887047000028
:102220003C03002070B501241646254600F052F804
:10223000082815D000F03AF80346082810D006B157
:1022400033701846FFF79AFF50B11846FFF748FF62
:1022500005460648184490F83A01012803D00024A6
:1022600044EA050070BD0124FAE70000B011002027
:1022700001494870704700003C03002002460948AD
:1022800010B500780B4658B10748417841B10BB101
:10229000801C01E00448823005F030F9012010BDB7
:1022A000002010BD3C030020B0110020084910B5EB
:1022B000034600204A7806E00C1894F802419C423C
:1022C00004D0401CC0B28242F6D8082010BD0000E5
:1022D000B0110020F0B51A4C0346002025782BE001
:1022E000C0EBC00222440F7892F853C192F85261B9
:1022F00087EA0C075E403E444F7892F854C187EA63
:102300000C073E448F7892F855C187EA0C073E448B
:10231000CF7892F856C187EA0C073E440F7992F8BD
:1023200057C192F8582187EA0C073E444F7957402D
:10233000F74204D0401CC0B28542D1D80820F0BD7D
:10234000B01100202DE9F041044600F1880771B179
:1023500004F1AE06751E012916D0022925D00329E5
:1023600010D131462846BDE8F0410BF007BA4FF4D2
:10237000287200210EF0B9F8384600F04DF8202000
:1023800084F84102BDE8F08121690D480A460844FD
:10239000B0FBF1F0C4F8CC0040F6B830A4F8D0009F
:1023A000638B384600F00EF8DBE70169B4F86E3253
:1023B000D4F868223846BDE8F04100F003B80000C8
:1023C0007FC3C90110B50024A0F84E4030F8524F29
:1023D0004C43B4FBF2F420F8124940F271246343F9
:1023E00002EB03135B1EB3FBF2F30382094BB3FB57
:1023F000F2F35B1CC3820389634302EB03135B1E8E
:10240000B3FBF2F3436003684B43B3FBF2F10160AB
:1024100010BD0000005A6202012180F825100B490E
:10242000C0F86E100721C0F8721000F16E010A7832
:1024300022F004020A70FE2180F8A6107F21417666
:10244000034981600021C0E9001170472F4904C48D
:1024500000E0FCFF024991F900100BF040B90000C8
:102460005403002008B57F208DF80000684605F071
:1024700039FD40B105484078404241B29DF9000025
:102480000BF02DF908BD9DF9000008BD5403002094
:10249000014A10705170704754030020094908B573
:1024A00009788DF80010009900919DF8001009B18D
:1024B000002008BD0349D1F801200260497901716B
:1024C000012008BD560300200CB504A1D1E900018C
:1024D000CDE90001684600F005F80CBDFFFFFFFFE5
:1024E0001F0000000549FF220A700A460368C2F86F
:1024F00001300079507100200870704756030020A9
:1025000070B590F8322090F83130012403FB01219E
:102510002522B1FBF2F302FB131100EBD10280F88C
:10252000321001F0070392F8262004FA03F31A424E
:1025300004D000BF80F83310002070BD90F8302028
:10254000B1FBF2F302FB1311491CC9B20023C518F9
:1025500095F82B208A4212D395F82650002200BF0E
:1025600004FA02F6354201D0491EC9B221B1521C0B
:10257000D2B2082AF4D304E002EBC301DAE7891AE5
:10258000C9B25B1CDBB2052BE1D31F2070BD00007C
:1025900070B5491C0023C9B20124C518AA798A4222
:1025A00012D395F80150002204FA02F6354201D008
:1025B000491EC9B221B1521CD2B2082AF4D305E097
:1025C00002EBC300C0B270BD891AC9B25B1CDBB29A
:1025D000052BE2D39D214620FEF70CFA417841B14C
:1025E000C0782B2803D2044A105C884201D1012014
:1025F0007047002070470000CA05010010B5012295
:10260000C1702B2902D2064A525C06E0FF2904D091
:1026100040F274412A20FEF7EDF9427010BD00002F
:10262000CA0501000449897C490700D408B100208B
:102630007047012070470000F01000200348807CA4
:10264000800701D40120704700207047F01000205F
:102650000348807CC00701D00020704701207047EC
:10266000F01000202DE9FE438846994615460446A1
:1026700001A90AF017FFB0BB029E012088367DB188
:102680002046FEF725FE04000DD029460AF054FC32
:1026900018B118494988A94207D20020BDE8FE8335
:1026A00086F824001FE0672120E001466A462046A4
:1026B0000AF03BFC009800270780877096F82410EA
:1026C00009B14FF0020841460BF065F900982A461F
:1026D0004946C01C0DF08FFE204629460AF0E3FB58
:1026E00018B186F824700120D8E77C212B20FEF752
:1026F00081F90000F0100020094882B0007A8DF8BE
:102700000000009800909DF80000002805D10222EA
:102710000449034802B00BF07AB902B070470000D8
:102720000811002055DA00002DE9F84FDFF8A091DC
:10273000684F83464FF0010A002678683546007AD4
:102740008DF80000009800909DF80010102906D127
:1027500099F8131019B1B9F81400002877D08DF842
:102760000060684600F02AF99DF800100029F8D1B1
:1027700000286CD00446007A8DF800000098009084
:102780009DF8008004F1080005210090017040468A
:10279000B8F1060F30D007DC02280FD0032819D07B
:1027A000B8F1040F07D11FE0082835D00F2852D008
:1027B000B8F1100F57D040F24E2162E0626832B19A
:1027C000594620469047042060F307055CE040F23C
:1027D000C71156E0626822B1594620469047054627
:1027E00052E04FF4E8714CE0616811B1204688472F
:1027F0004AE04FF4ED7144E0626832B15946204638
:10280000904702F05BF818B11FE040F2152138E064
:1028100000F0CEFE90B318E0014660685D4618B146
:102820000488082911D101E0E3212AE02046FEF7BF
:102830004FFD70B10D212970A5F80340A5F805A042
:1028400085F802A000210AF00EFC04203E61BDE8DC
:10285000F88FC52115E019218BF80010D4F8091064
:10286000CBF80310AFE71C48026822B1606830B1B2
:1028700000885946904702203E61E8E704E04FF4A3
:1028800011711020FEF7B6F8C5F30720012810D00B
:10289000EFF3108072B6217A8DF800100099009144
:1028A0009DF80010052908D039B166F3070538B145
:1028B00007E000994046087003E026723E61F6E7A3
:1028C00062B615F0FF0F3FF438AFE8B2BFE7000083
:1028D000F01000201C110020AC00002001490870FD
:1028E00000F0CEB85C030020024901480860704740
:1028F000F9280000AC000020FEB50D00064615D0FA
:10290000AE80002068723046FEF7CCFC04460AF028
:10291000EEFA70B101466A4620460AF006FBE880EE
:1029200050B1FB280BD94FF4907131E04FF488710E
:102930002EE040F219112BE04FF48F7128E000983F
:102940000AF0E7FF012804D0022802D04FF4987162
:102950001EE028722868F0B10099EA88C91C0DF0C1
:102960004AFD20460AF08BFAC0B1204600210AF049
:102970007AFBB0B11048C17C00291BD0818A491E66
:10298000818201A930460AF08DFD68B14FF4A5712E
:102990001020FEF72FF840F23711F9E74FF49E713F
:1029A000F6E740F24111F3E70298B0F8BC10491C79
:1029B000A0F8BC10FEBD0000F010002038B50346A2
:1029C0001749002018700869012440B1027A8DF877
:1029D0000020009A00929DF80050002D11D1486807
:1029E000027A8DF80020009A00929DF80050012D87
:1029F00006D0EFF3108272B605684D6012B102E0A6
:102A0000002038BD62B6027A8DF80020009A00924C
:102A10009DF800500DB1086138BD1C7038BD000034
:102A20001C11002038B5D0B1416000F108010A70D6
:102A3000EFF3108372B6104C0460211F4A684AB14C
:102A4000127A8DF80020009A00929DF80050012D16
:102A500000D10C600A68106008602BB105E040F2FC
:102A600079211020FDF7C6FF62B604480078BDE862
:102A7000384009F00FBC0000201100205C0300204A
:102A800010B51422002108480DF02FFD064812222F
:102A9000002114380DF029FD034801210173011DA7
:102AA0004160016010BD00001C110020F0B4A2F8CC
:102AB00009000C89A2F80B408B89A2F80D304889D7
:102AC000A2F80F00CD89A2F81150CE8DAE4208D1E8
:102AD0004D8D854205D10D8E9D4202D18B8DA34235
:102AE00001D0012300E00023D3744885B2F811001F
:102AF000C885B2F80B008885B2F80D000886F0BCD6
:102B0000014910460AF07DBF352B0000A2F80900EC
:102B1000888AA2F80B00C88AA2F80D00088BA2F8D8
:102B20000F00488BA2F81100014910460AF066BF59
:102B3000792B000038B5A0F11605C07C0C4600F0DA
:102B40000100FFF76FFD002108B100910FE0142094
:102B5000207055F81F0FC4F802006868C4F806001A
:102B600028896081A87A2073024840680090BDF8E7
:102B7000000038BD002C000070B586B00E4604463B
:102B8000FFF75CFD002558B3A4F5BE7025720488DC
:102B900003A920460CF0E1FC08B1FC2117E0ADF8D8
:102BA0000040BDF81200ADF80200BDF81400ADF809
:102BB0000400BDF80E00ADF80600BDF81000ADF839
:102BC000080068460CF0F0FC20B140F205112C2002
:102BD000FDF710FFCDF80050BDF8000006B070BD45
:102BE0001C2006F8030B54F8090F30606068706011
:102BF00020893081014800680090EDE7002C00003A
:102C0000040000000400000070B50C4DA5F108049C
:102C100008210A48FDF784FF286810B96868002871
:102C2000F6D000F00DF8206000F00AF8606021682E
:102C3000002901D10028F4D070BD0000B8000020A8
:102C4000014800F003B80000B800002010B5D0E93A
:102C50000021094B094C53435443514081EAB212BD
:102C600082EA41224FEAF141C0E9002143EAD463FC
:102C700003EB8303184610BD6037EFC6BB79379E60
:102C800070B50446406890F8A5101B2901D00220B9
:102C900070BD002580F8E550606880F8E0506068FD
:102CA00080F87052606890F8E61061B180F8E650E4
:102CB000606802220188A0F8121260680D4980F84D
:102CC000115260680CE00188A0F81212606880F868
:102CD000115261680120022281F8140206496068DD
:102CE00000F502700AF093FE606880F8A55000209D
:102CF00070BD00000FE00000F3DF000070B5456814
:102D00000C1D002395F8A620883501261946284673
:102D10000AF0DEFBC0B120680C4B6168184041F638
:102D20000702C5F86E001140C5F872101B2105F1AD
:102D30006E000BF0C1F90020A5F85A0085F85C6020
:102D40000420A877002070BD012070BD2F4904F732
:102D500010B5041D04F02AFB034B41F6070218408E
:102D600011402060616010BD2F4904F72DE9F84340
:102D70000546037840680F1D00F1880600F5A97428
:102D80008046727F072130460AF0A2FB00B3396803
:102D90001A4B7868194041F60702C6F86E101040C9
:102DA000C6F872001B2106F16E000BF085F90020B9
:102DB00086F858007077696881F84B0194F86010C4
:102DC0008DF80010009900919DF8001099B902E06B
:102DD0000120BDE8F883B8F80010A4F8621084F868
:102DE0006100396861667968A1660222044904F1CC
:102DF00058000AF00CFE0020EBE700002F4904F712
:102E000019E1000070B50D1D446804F0CFFA41F6D9
:102E10000702054B114094F8F6201840024062F377
:102E200007002860696070BD2F4904F72DE9F04163
:102E300044680D46037894F8A520883401270821BA
:102E400020460AF045FB30B90023A27F19462046F0
:102E50000AF03EFB20B394F85F004FF000068007B5
:102E600019D428460AF0B1FD84F8690035F8050F39
:102E7000A4F86A006888A4F86C0094F85F0040F039
:102E8000020084F85F00C0070DD00222124904F14D
:102E900060000AF0D0FD94F85F00C00703D00EE098
:102EA0000120BDE8F0810023A27F194620460AF0E8
:102EB0000FFB40B1A77784F85C70A4F85A60607F7C
:102EC000012804D006E049214020FDF793FD6677F4
:102ED00084F858600020E4E7C7E10000044A9268E3
:102EE000C2F580534B43424303EB2230704700004E
:102EF000C0000020F8B54468064604F1880500F0DB
:102F00007BF894F8281001291BD1002819D070688B
:102F100090F85A118DF80010009900919DF800105A
:102F200000F5A97000290CD12188A0F80910697E4C
:102F3000C172A97E0173BDE8F840022201490AF07E
:102F400066BDF8BD41E2000000F500610D4A10B514
:102F500000F50060091300134BB292F900404042A3
:102F6000002140B2A34202DA92F9021005E092F980
:102F70000140A34204DD92F90310084400F3070165
:102F8000084610BDC00000202DE9FC41A0F5F975F0
:102F9000A0F5B57495F86B000BF036FF0646A068F7
:102FA000FFF7D2FF070021D020460BF050F9002890
:102FB0001CD0288869460AF075FA18B185217A2054
:102FC000FDF718FD761CF1B202233A4668460BF075
:102FD0003AFF00280AD1064806490079A0FB01659E
:102FE0000DF0B9F880196941C4E90001BDE8FC8120
:102FF000C000002040420F002DE9F0410746FFF7D6
:1030000031FA7C68054684F8A10088347F2842D0D4
:1030100094F833007E68A0762946A068FFF75EFF2B
:10302000A0601E484079C0B1786800F18808D0F8E7
:103030009000FFF789FF80B140460BF008F960B1BE
:10304000786800F5A978074604F0BCFD87F86B00A6
:10305000134908F1A0000AF0D7FC94F91B000021E5
:10306000281A00D5404296F82920824210DCFF2A17
:103070000ED0207F401CC0B2207796F82A209042C4
:1030800002D8E07E7F2803D10020E5762077012159
:103090000846BDE8F0810020FBE70000C0000020EA
:1030A000892F0000F8B50BF0EEF804460D466A468D
:1030B00000F062F808B10120F8BD0F4803784178AC
:1030C0008B4201D10020F8BD1A46416808E000BFDC
:1030D00001EBC206521E56E9027CC6E9007CD2B260
:1030E0009DF80060B242F3D8F2B201EBC2015B1C62
:1030F000C1E900450370DEE7CC00002010B54207AF
:1031000003D063214820FDF775FC20B1034A5170BC
:10311000506000201070C80010BD0000CC000020DE
:1031200038B50BF0B0F86A4600F026F8002814D045
:103130000A4A1078401EC1B211709DF80000526812
:1031400008E000BF02EBC003401CD3E90245C3E91D
:103150000045C0B28842F5D3012038BDCC00002024
:103160000149002008707047CC00002001484078D9
:1031700070470000CC000020F0B5204D00231370F4
:103180002B7823B300245B1EDBB2D5F804C00BE020
:10319000E5186D080CEBC506D6E900763F1A8E419E
:1031A00001D22C4600E02B461D1B012DF0DC0CEB60
:1031B000C406D6E9005680EA050781EA060E57EAFA
:1031C0000E0705D0451B71EB060503D2147010E005
:1031D000147011E00CEBC305D5E9004580EA040644
:1031E00081EA05073E4306D0001BA94100D35B1CC2
:1031F00013700020F0BD13700120F0BDCC00002042
:1032000001484068A0307047D400002010B51E4C23
:10321000606890F844000BF080F8616881F8450020
:103220004631FEF7F9F9606890F844000BF07CF83D
:10323000616881F87D0091F845004631012802D18E
:103240004A79920902D00BF05DF800B10120616863
:1032500081F8580018B991F87D00002812D0FEF7C7
:10326000DBFF0A49A0FB0123606890300BF0BAF83D
:10327000606890F87D00002804D0BDE81040002070
:10328000FEF754BF10BD0000D400002040420F00E4
:10329000044A0328526800D1116582F854000020C6
:1032A00070470000D4000020064808B54068007A46
:1032B0008DF80000009800909DF80000002800D0D4
:1032C000012008BDD40000200249496881F87E0031
:1032D00000207047D40000200A484168486E70B151
:1032E00001F16900FF22027000224A66027091F823
:1032F00068100120884004490860002070470C20B5
:1033000070470000D400002008F5014002460C4838
:1033100010B58260C0680C4668B100F0BBFF0BF0CE
:1033200047F9204600F0BAF8002807D040F6AF1160
:103330003220FDF75FFB40F6A911F9E710BD000050
:10334000D40000202DE9F0410F4C05461646606878
:103350000F4690F844000AF0E7FF58B155B93846D7
:103360000AF0DBFF31460AF07DF8082802D0012080
:10337000BDE8F081606890F844000AF0CEFFBDE837
:10338000F041FEF775B90000D400002010B50A4CDA
:103390006068016D51B1022242720988418107497A
:1033A0000AF035FB61680020086510BD40F223413A
:1033B0003220FDF71FFB0000D4000020F136000092
:1033C00070B515460E4C0A46002815D04FF0000384
:1033D000616801F84D3F48724FF0080081F82E00F7
:1033E00008D110460AF099FF29460AF03BF86168B7
:1033F00081F87B00002070BD4FF00103E8E700007A
:10340000D400002010B5B9B10E4A526882F85A00B3
:103410000868C2F85B008888A2F85F0092F845004F
:1034200052F8501F487252F8080952F8021CC0F8AE
:103430000A105188C18110BD40F697313220FDF746
:10344000D9FA0000D400002002490148C860704742
:10345000CC440000D40000200249496881F84400AF
:1034600070470000D400002070B50546FDF748FF06
:103470000446FDF74BFF21460AF0B2FF010006D0DB
:103480000548C06802682846BDE87040104740F60D
:10349000A5213220FDF7AEFAD40000207CB51F4DE7
:1034A0000446686890F87010012904D090F8700004
:1034B00008B10C207CBDFDF74DFF0BF079F800F052
:1034C000CFF84222002168680DF00FF869680120EA
:1034D000002281F84D0081F8542081F87A2081F88B
:1034E000594081F89820072081F84C0001F16900CB
:1034F000FF23037081F868204A6602700849D1E909
:103500000101CDE90001684600F030F80028D1D073
:1035100040F69A113220FDF76DFA0000D400002029
:1035200064440000054810B5406890F844000AF073
:10353000F4FEBDE81040FEF79BB80000D400002068
:1035400040B1022806D000220349496801F84D2FF6
:10355000087270470122F7E7D40000200249496849
:1035600081F84C0070470000D400002010B50346DD
:103570000078C00705D058780021FFF789FE0028A1
:103580000CD1074C9878616881F84400D878FFF72F
:10359000D7FF6168187981F84C00002010BD000049
:1035A000D40000200148C06840680047D4000020D3
:1035B000074808B5406890F83E008DF80000009874
:1035C00000909DF80000002800D0012008BD0000F8
:1035D000D400002010B500F047F90C4B40B15868FA
:1035E000012180F83F10016D0988A0F8401005E026
:1035F0005968002081F83F00A1F840005868022275
:10360000BDE81040024936300AF001BAD40000206B
:103610002D4200000248406890F8540070470000B6
:10362000D400002010B500F01FF90C4928B14868FB
:1036300090F8560001280ED00CE0496891F854002B
:10364000012801D0022805D191F85500012803D0A6
:10365000032801D0002010BD012010BDD40000209F
:1036600010B5074C606890F87C00002807D004F083
:1036700037F903F05BFF6168002081F87C0010BD22
:10368000D4000020062008700448406830F8332F2A
:10369000A1F803208078487170470000D400002012
:1036A0002DE9F041104D06460F4668680F4990F825
:1036B0007A000C5C204604F061FC6868012180F807
:1036C0008940252004F02AFC384604F05BFB4FF0CB
:1036D0000101084626B104F0AFF918B9BDE8F08140
:1036E00004F070F90120F9E7D400002064440000E0
:1036F00070B5194E0C467068417A91B1408900212D
:10370000FDF7A4FB050024D0288809F0FBFD2888DC
:103710000021FDF753FC88B140F2F5313220FDF76E
:1037200069F9016DD0F80E2041F8032F428A8A8092
:10373000407B0AF0F2FD7168096D887013202070DB
:1037400071682122E01C09310CF055FE0020A071A7
:1037500070BD40F2F131E1E7D4000020F8B5002659
:103760000F4605468DF800606B4600F095F80100A5
:10377000104803D0406880F88160F8BD40689DF82B
:103780000010072F90F84D4001D3344602E022008C
:1037900000D10C4680F8814069680029EDD0697C31
:1037A00080F88A1069680A6840F8832F89888180C8
:1037B000F8BD0000D400002010B5154942684968E2
:1037C000137891F88340A3421FD1537891F8844035
:1037D000A3421AD1937891F88540A34215D1D378AA
:1037E00091F88640A34210D1137991F88740A34203
:1037F0000BD1527991F888309A4206D1407C91F8E9
:103800008A10884201D1012010BD002010BD0000A7
:10381000D400002010B501788CB001F00F042246CE
:1038200001A900F0F5FE04F07DF800F0CDFC042CB9
:1038300014D101A8FFF7C0FF80B10BA800F0CCFCA9
:103840009DF92C0000900748406890F8893090F866
:10385000982090F8791001A80AF05FFE0CB00520BE
:1038600010BD0000D40000200448406890F85400C7
:10387000032801D00020704701207047D4000020A9
:10388000827C83680348416891F84500463109F01D
:103890003DBD0000D4000020FEB541681E46044630
:1038A00001B3607C0AF02EFD194D696891F87C1017
:1038B00041B138B109F0CCFD696801F8780F487062
:1038C0000120C871686890F87800FF280CD06A461B
:1038D00002A9FEF787FCA8B169469DF808000AF026
:1038E000CBFC30700020FEBD607C61680AF0C4FC37
:1038F00030706A68607C61687832FEF793FC80F013
:103900000100FEBD40F622513220FDF773F80000A1
:10391000D40000202DE9F0414C4C06460021D4E9AA
:10392000015070350180032E02D0052E04D051E0E5
:10393000032109F08AFF4DE0052109F086FFD4E953
:103940000107016D4969C7F80F10016DC969F97464
:103950000A0A3A75090C7975006D0169808C09F0C5
:10396000B4FEB875D4E90107006D0169006A09F079
:1039700095FEF875000A3876D4E90107006D0069F4
:1039800009F0A0FD7876000AB876D4E90107016D48
:10399000098B07F81B1F090A7970016D498BB970F3
:1039A000090AF970016D51F8AE2F7A600979397200
:1039B000006D90F8B910787A01F01F0100F0E00076
:1039C0000843787203F022FD797A01F01F0141EA81
:1039D0004011797205F11301A06809F051FFA97E29
:1039E000A06809F053FF606800F1460590F8457043
:1039F00090F87D0088B1FFF737FF30B1606890F82C
:103A00004D1011B190F87B0002E0606890F87800EA
:103A1000FEF7C0FB08B1012705462946A06809F05A
:103A20003CFF3946A06809F03EFFA06804F0AAF9FF
:103A3000052E08D160682A68016DC1F80A20AA889D
:103A4000CA81006D4772BDE8F0810000D4000020FB
:103A50002DE9FF5F654F0446786890F8818090F803
:103A60007D0080B100260025A07CA1680AF04AFCF8
:103A70008246FFF7F9FE40B1786890F84D1021B109
:103A800090F87B0004E00126EDE7786890F8780074
:103A90008346FEF731FB5FEA00090CD05846FEF77B
:103AA00013FB00B10126BAF1000F04D04846A1680B
:103AB00009F081FC05467868B94690F845700DB16B
:103AC00047F00207FFF7D0FEA0B36068D9F80410F2
:103AD000027891F85B309A421FD1427891F85C30BD
:103AE0009A421AD1827891F85D309A4215D1C27803
:103AF00091F85E309A4210D1027991F85F309A4283
:103B00000BD1407991F86020904206D1607C91F809
:103B10005A10884201D1012000E00020344F824633
:103B200097F87800082806D097F87B10884202D1D1
:103B3000012001E021E00020814625B92EB1204678
:103B4000FFF79EFE08B1012000E00020B8F1000F51
:103B500009D097F85610012903D021B95AEA090172
:103B600001D0012100E00021084203D00C2004B064
:103B7000BDE8F09F03F0D6FE36E003F0D3FEB8F1C7
:103B8000000F31D02046FFF77BFE00B975B103A8C6
:103B900000F022FBD9F804209DF90C3092F879004E
:103BA00092F889108DE80B003B4618E0D9F8040024
:103BB0004D4690F85500032801D0022814D1BAF1DF
:103BC000000F11D003A800F007FB6A689DF90C30C4
:103BD00092F8790092F889108DE80B00FE230121FC
:103BE000204646320AF021FC0520C0E7D400002020
:103BF000B00900207FB53F4C0546606890F8811001
:103C000000296CD090F8540002282CD0012843D011
:103C1000FFF72AFE002867D06A686168107891F87B
:103C20005B3098424CD1507891F85C30984247D143
:103C3000907891F85D30984242D1D07891F85E301A
:103C400098423DD1107991F85F30984238D150793F
:103C500091F86020904233D1687C91F85A209042CC
:103C60002ED101202DE003A800F0B6FA62689DF97C
:103C70000C3092F8790092F889108DE80B00FF2340
:103C80000021284646320AF0D0FB6168012081F805
:103C900098000B2004B070BD03A800F09DFA626884
:103CA0009DF90C3092F8790092F889108DE80B009C
:103CB000FF230021284646320AF0B7FB0520E9E73A
:103CC000002091F8561001290CD058B90A4991F8F2
:103CD0007B00082803D091F87810814202D003F0CD
:103CE00021FEEBE70C20D5E740F6D3613220FCF74C
:103CF00081FE0000D4000020B00900207FB51E4CDA
:103D00000546606890F8811029B190F854000228A7
:103D100004D001281BD003F005FE2AE003A800F020
:103D20005BFA62689DF90C3092F8790092F889107C
:103D30008DE80B00FF230621284646320AF075FB6A
:103D400062680B20002182F8981004B070BD03A8AF
:103D500000F042FA62689DF90C3092F8790092F80E
:103D600089108DE80B00FF230621284646320AF011
:103D70005CFB0520E9E70000D40000207FB589B393
:103D8000012934D00525022904D0062925D003F0C5
:103D9000C9FD1FE0064603F0C5FD174C606890F8AA
:103DA0008110B9B190F85400012801D0022811D136
:103DB00003A800F011FA62689DF90C3092F87900BE
:103DC00092F889108DE80B00FF230221304646321D
:103DD0000AF02BFB04B0284670BD04B0BDE870406B
:103DE000FFF78CBF04B0BDE87040FFF703BF04B01D
:103DF000BDE87040FFF72CBED400002002460B48FF
:103E000082B0406890F869108DF800100099009118
:103E10009DF80010002907D1416E002904D090F8C8
:103E2000680002B007F012B802B07047D40000205A
:103E30002DE9F0410746FDF763FA0446FDF766FAFF
:103E400021460AF0CDFA050012D02D4C606890F89A
:103E50005400012804D0022802D0FFF705FD50B11C
:103E60006FF013063FB3284609F0C0FC50B905E0D7
:103E700041F245513AE041F24B5137E0284609F012
:103E8000D7FCC0B16168284691F87020052A02D29B
:103E900041F2CA412AE091F870200B2A02D341F284
:103EA000CB4123E0E26891F87010526906EB810182
:103EB0005158884716E0606890F87010052902D2C2
:103EC00041F23B5112E090F870100B2902D341F2FD
:103ED0003C510BE0E16890F87000896906EB8000C6
:103EE000085880470F2804D34FF4AB513220FCF719
:103EF00081FDE168096951F82000BDE8F041004703
:103F0000D400002010B518B1BDE8104000F0B4B9DD
:103F100000291DD00F48416891F870200B2A02D269
:103F200041F2186105E091F870200F2A04D341F2A4
:103F300019613220FCF75EFDC06891F8701080684E
:103F40006FF02B0202EB81014058BDE810400047A2
:103F500010BD0000D400002010B5FFF781FB00F079
:103F600099F905488168002000F046F8BDE8104046
:103F7000022000F085BB0000D400002010B5FDF742
:103F8000BFF90446FDF7C2F921460AF029FA50B1FB
:103F900003F0F8FE002003F0BBFD05490620496848
:103FA00081F8700010BD40F21B613220FCF722FD49
:103FB000D40000200F4910B5486890F87020052AF9
:103FC00002D241F24C6105E090F870200B2A04D334
:103FD00041F24D613220FCF70DFDC96890F8700088
:103FE000C9686FF0130202EB80000858BDE810406A
:103FF00000470000D40000207CB53C4C00256E46F4
:1040000060684572016D0A884281086909F05AFAB0
:10401000616821F8200F086B028B4A80408B8880F2
:104020008D71FF20C8714FF6FF7008816946A06846
:1040300009F0F4FBA0686168007891F87D10C0F386
:10404000801051B131460AF05DF930B160680099D5
:104050004161BDF80410018302E060684561058399
:10406000616891F87900FF2817D001F10E020D3137
:10407000FEF7B8F860B16068417B41F0020141731E
:10408000D0F88310C0F81A10B0F88710C18311E07F
:1040900041F297513220FCF7ADFC91F88A00487349
:1040A000D1F88300C1F80E00B1F887004882C1F84A
:1040B0001A50CD83606890F95910006D09F09FFA8D
:1040C00002220B49606809F0A2FC6068016D2A3089
:1040D0000A880849A1F833200A6D92F8AD2081F8CA
:1040E00035200222044909F0A6FC7CBDD400002042
:1040F000F1360000B0090020853600002DE9F041BE
:104100002C4C05460E46606890F8700020B10128DE
:1041100002D00C20BDE8F08103F08EFD03F0E0FB3F
:1041200003F004FA244803F0EBFC244803F0F0FE0B
:10413000234803F0E3FE304603F024FE687910B113
:104140000120FFF75BFE2879032801D018B118E0A1
:1041500040F646212AE061680020032591F84C30A2
:1041600091F87A20521CB2FBF5F705FB172281F873
:104170007A2023FA02F2D20703D1401CC0B20328EE
:10418000EED3606890F9590003F0DAFD3146012062
:10419000FFF786FA0028BDD000F030F90948006822
:1041A000032801D00020B5E740F654213220FCF767
:1041B00021FC0000D4000020E844000055555500C3
:1041C000D6BE898E5015004010B5FEF74BF9014957
:1041D000087010BDD4000020074A10B592F90010F5
:1041E0007F2903D001707F20107010BD40F239414B
:1041F0003220FCF7FFFB0000D400002010B50020A7
:10420000FFF7FCFD0848406890F8700028B10128CD
:1042100003D0022804D00C2010BD00F02DF801E0DE
:1042200000F040F8002010BDD400002010B5182088
:1042300008701048406830F83F2FA1F803208078BC
:104240004871C878012814D18C8800212046FCF7D9
:10425000FDFD00280DD0204609F054F8002120462D
:10426000FCF7ACFE002804D040F211413220FCF7EC
:10427000C1FB10BDD400002010B5FFF7F1F90449CF
:104280000120496881F87000BDE8104000F01CBBB7
:10429000D400002002490020496881F8700070476E
:1042A000D400002070B5FDF72BF80446FDF72EF87A
:1042B00021460AF095F8040020D00AF09EF800206C
:1042C00000F00CFAF8B1204D686890F870000228F0
:1042D00003D021460020FFF7E3F9E01C09F0B5F810
:1042E000696881F87C0028B1402403F03FF920463A
:1042F00003F004FBFFF7B8FA70B908E040F2095187
:104300003220FCF777FBBDE87040FFF7B5BF686867
:1043100090F85400022804D100210122084603F03D
:10432000BBFD6868FF2180F8781080F879100021C3
:1043300080F8801080F87F1080F8811080F8981045
:10434000052180F8701070BDD400002070B5FCF716
:10435000D7FF0446FCF7DAFF21460AF041F80600D1
:1043600025D0174D04206C68703400F0B7F918B3ED
:104370000C202070002000F083F930786968C0F3C9
:10438000401081F88B000520FFF7C4FA0D48E27E4B
:104390002023016D11F8AD0F10400870A96803EAE1
:1043A00040100A7802F0DF0202430A7070BD40F24A
:1043B0008A613220FCF71EFBBDE87040FFF75CBF4E
:1043C000D4000020B009002010B5032000F086F9C9
:1043D00068B10320FFF79EFA01221146002003F086
:1043E0005BFD05490B20496881F8700010BDBDE8F0
:1043F0001040FFF741BF0000D400002070B5174DFA
:1044000000206C6884F8980094F8580010B994F86B
:104410007D00F0B1F4E924106FF00042504070EAE2
:10442000010116D00BF097FED4E90023801A9941C0
:104430000FD3FDF7F1FE0A49A0FB01236868903015
:1044400009F0D0FF686890F87D0010B10120FDF7F9
:104450006DFE6968022081F8700070BDD4000020F4
:1044600040420F002526270001010002070000003E
:104470009542000079420000A1E30000A1E30000A2
:10448000A1E30000A5420000A1E30000A1E30000B9
:10449000A1E30000A1E30000A1E30000C943000084
:1044A0004D430000A1E30000A1E300007D3F0000B8
:1044B000593F0000ABE30000B9E3000051E3000006
:1044C0005BE3000069E3000015380000FD400000D8
:1044D000FD410000AC440000B44400007044000002
:1044E000C4440000BC440000B53F0000313E000061
:1044F000053F0000CBE3000070B5044600780428B7
:1045000001D050216EE0607BC00601D4512169E0EA
:104510001C22E11C39480BF06EFF3848E27A04F1A6
:104520001F011C300BF067FF34494FF00103887AFC
:10453000400702D5C87CFE2822D0032504F8015B81
:10454000087A0A780A3012FB00F0801C04F8020B8B
:10455000087804F8020B487804F80109D1F8020041
:10456000C4F80200C888E080087A20720E7A04F14C
:1045700009004A7A32548A7A160719D5042226E0AD
:10458000112020700878E070237148786071D1F8AC
:104590000200C4F80600C8886081FE2020734869C4
:1045A000C4F80D00088BA4F81100487AE07470BDBF
:1045B000D60703D0960701D5002208E0560701D59B
:1045C00023700BE0D30710D1930702D5022222708B
:1045D00004E0D30709D1920707D425700A7A1F2A6D
:1045E00005D9A1213320FCF705FA9E21FAE7BDE8A1
:1045F000704002491C310BF0FEBE00003A1300204F
:10460000002101720622014909F001BAB5E5000056
:104610002DE9F04116460C46054609F005F960748F
:10462000284609F0F8F8A074EA1C144B901D0021EC
:10463000072E1FD2DFE806F0040B111E131E040024
:104640001B780DE0E060BDE8F081E160FBE75B789E
:104650006370C4E901202174F7E79B7800E0DB7800
:104660006370C4E901216A78921F12F0FF0222747C
:10467000EBD0E7E761706160A160ECE7F505010050
:1046800070B540B1012806D002280AD0032806D010
:1046900040F6CF0115E0BDE8704000F085B901207B
:1046A00000E000200C4C012184F8241084F825003F
:1046B000206A002580F840522178052904D040F670
:1046C00072012120FCF796F90AF086F82562BDE810
:1046D000704000F0CDB90000580A002070B50546C2
:1046E0000BF039FD164C2169461A55B1032D0DD03A
:1046F000042D0ED0062D1DD04FF477712120FCF72C
:1047000079F9012009F0FCFF983004E04FF457706C
:1047100001E04FF4FC70216B3518FA398D4207D354
:10472000002600F0CBFA40B1206BFA38854203D264
:10473000012602E0012070BD0026304670BD000059
:10474000580A0020F0B51E4C074687B020780E4668
:1047500010B10C2007B0F0BDFEF752FD05462762F0
:1047600097F8400210B140F2033125E00520207097
:104770000020607084F8240000F0E6FAA0640021B4
:10478000104806F0C1F9287020280DD033460022C9
:104790000121684600F040FB48B12878694609F0DD
:1047A000DBFF38B10020D5E740F2113104E04FF4CF
:1047B000457101E040F215312120FCF71BF90000A2
:1047C000580A0020914A00000249096A016000F07D
:1047D0003DB80000580A002070B586B0064611B1F9
:1047E000112006B070BD174C207808B10C20F8E7F6
:1047F000FEF706FD0546002060700420207000F0E2
:10480000A3FAA0640021104806F07EF92870202841
:104810000DD0334600220121684600F0FDFA48B170
:104820002878694609F098FF38B10020D9E740F2AE
:10483000693104E040F26B3101E04FF45B712120FB
:10484000FCF7D8F8580A0020914A00002DE9F04101
:104850000027FEF7D5FC184C05462078042805D023
:104860002078052802D00C20BDE8F081012060707E
:10487000207B60B1EFF3108672B6207B28B1607B9D
:1048800018B109F05BFD00F0F3F826B104E02878D8
:1048900005F0B8FE00E062B6287806F01DF800F0DA
:1048A00011FC0020607094F8240000B10C2700F087
:1048B00035FC3846D8E70000580A00200148007847
:1048C00070470000580A002010B5104C86B0207BBD
:1048D000B0B16078A0B900231A461946684600F0C6
:1048E0009BFA58B1FEF78CFC0078694609F034FF5A
:1048F00030B940F2D7712120FCF77CF80120A0707C
:1049000006B0BDE8104000F0B3B80000580A00201F
:1049100010B56822002108480BF0E7FDFEF770FC97
:104920002021017000F00AF8002804D04FF40E7125
:104930002120FCF75FF810BD580A00200EB50A4888
:10494000007808B1FFF782FF084A07CA8DE8070020
:10495000684600F00DF8002804D040F24F212120D5
:10496000FCF748F80EBD0000580A0020C8510000AE
:104970000C4908B5097821B140F223312120FCF718
:1049800039F80023009301781A46C90703D0D0E90B
:104990000130012200906946184600F01BF9002002
:1049A00008BD0000580A00202DE9FC472E4C804627
:1049B000D4E904531E4603F0FFF80746206A01219C
:1049C00080F86A1080F86B106230FF218172206AD3
:1049D0004FF0000949462C3009F08CF82A4633463E
:1049E00001214046009709F09EFE276A06460D46C3
:1049F000D7F8108001F070FF04F1400188420BD01D
:104A0000CDE90065D7E9860142460AF0C8F940457C
:104A100003D940F212411DE00020144907460968FD
:104A20008842206A016902D20F44016204E03846DC
:104A300008F03AFE216A0862206A0169052008F040
:104A40003BFE216A8884216A0A6ABA1A904204D815
:104A50004FF406612120FBF7CDFFF21945EB090564
:104A6000C1E98625BDE8FC87580A0020E400002043
:104A700010B5064C207B002806D003F0A9F806F0FC
:104A800067F800202073607310BD0000580A0020F2
:104A900070B586B00D46FEF7B3FB01263F4C092DDD
:104AA00078D2DFE805F005384E4E4977646D720024
:104AB00026736178002958D1007805F039F8054649
:104AC000C4E9040100F046FB18B100208DF8040091
:104AD00001E08DF8046000F04BF96168281AB0FB22
:104AE000F1F201FB120050B15FF000008DF80500FB
:104AF0006846FEF7B9FC20B140F2D11147E0012031
:104B0000F4E7206BE938A06306F002F900282CD105
:104B100040F2D5113BE0607830B109F00FFC06B0EF
:104B2000BDE87040FFF7A4BF6673FEF73BFD0028A9
:104B30001BD04FF4F2712AE006B0BDE8704003F0DC
:104B400023BA0578002301221946684600F064F96B
:104B500040B16946284609F0FFFD002805D140F222
:104B6000F27114E0A67000F01BF806B070BD00F002
:104B7000A5F80028F9D106B0BDE8704009F0DCBB0B
:104B800006B0BDE8704000F00BB840F216212120BD
:104B9000FBF730FF40F21A21F9E70000580A002025
:104BA00010B50B4C207838B100F08CFAA07850B1D9
:104BB00094F8240028B106E04FF4BF712120FBF7E0
:104BC00019FFFEF707FDBDE8104000F0A7BA00008E
:104BD000580A00202DE9F041144C16460F4660603B
:104BE000206540F271200025A4F8540009F07DFDF5
:104BF000DFF83CC0002100BF1CF80120324207D082
:104C000057F8253004EB85021B1A6D1CEDB293603A
:104C1000491C11F0FF01EFD016F00E0F04D040F246
:104C200015712120FBF7E6FEBDE8F081580A00204F
:104C3000C45100002DE9F04387B09146804600F052
:104C400095FA1D4C00266268851841EB060709F0AD
:104C50007CFDB5EB0801884210D9D4E9060100F0CB
:104C600085FA6168281AB0FBF1F1C9F80010606894
:104C7000401946EB070107B0BDE8F0838DF80060EE
:104C8000606B019009F01AFDADF8080001208DF865
:104C90000B00D4E9060100F069FACDE9040100F047
:104CA000F7F98DF80A006846616808F0ACFCC9F8AD
:104CB0000000DDE90401DEE7580A00202DE9F0419B
:104CC0000BF049FA1F4C06460D46D4E9040100F0EA
:104CD000DFF9074604F0D2FE0246682823D3501CB1
:104CE00024D0216B636B8818834200D85A1A6FF066
:104CF0003C00301845F1FF3100F04CFA216B0844BC
:104D0000216B451A41F28830854200D905460BF0E7
:104D100022FA801B00F1A300854204D339462846BD
:104D200004F0B4FD20B10020BDE8F081606BE7E73E
:104D3000206B28442063A06B2844A063BDE8F041A9
:104D400005F0E6BF580A002010B5002409F0CDFC9C
:104D5000064A002102EB810304449B68491C1C4461
:104D600011F0FF01F6D0204610BD0000580A0020C7
:104D70000149D1E910017047580A00202DE9F0419E
:104D800006461D4888461546D0E90A106FF00042D5
:104D90000127504086B070EA010121D000248DF82F
:104DA0000040019509F08AFCADF808008DF80B7001
:104DB00009F0CBFC821944EB0800CDE90420022065
:104DC0008DF80A00684605F05BFA68B1DDE9041069
:104DD0004A1909496041D1E90A319A1A814108D436
:104DE000012006B0BDE8F08140F23A512120FBF7E6
:104DF00001FE0020F5E70000580A002010B5FFF77B
:104E0000A3FF04494968884201D1012010BD002058
:104E100010BD0000580A00202DE9FF4F87B014464E
:104E200006460BF098F98046974889464FF0000AED
:104E300080680290FFF7E2FF0490204003900898FA
:104E400000287BD04FF4FA6218EB020549F1000408
:104E500001F048FD00908C48017800F1400B0529D5
:104E600037D1006A0021D0F8200201F01BFD009923
:104E7000074688420AD084483946006A00F5067021
:104E800001F0C0FC0021CBF820100DE07E490A6A39
:104E900002F50672CBF820200A6A886CD2F820222C
:104EA000904200D2104688647748006A58B16FB1CA
:104EB000D7E90112D7F800C01CEB020241EB0A014E
:104EC000C0E9862105E040F2AE711CE00021C0E996
:104ED00086115846009901F095FCDFF8ACB10098B6
:104EE000DBF8047090B1D0E901120368CDE90054F9
:104EF000981841EB0A013A4609F051FF0146B842C1
:104F000005D940F2FF312120FBF774FD00216D1817
:104F10005046DBF8041044416B1A64EB0A01CBE9FC
:104F2000103159490A9A28315AB142F210735A4342
:104F3000AA1844EB0A00C1E9002000E007E00120C4
:104F40004EE04FF0FF304208C1E90002F5E7039858
:104F5000D8B1012009F0D4FB0446012002F024FF5F
:104F60004AF2A13101444FF47A70B1FBF0F02218FB
:104F700040464946FA32FFF701FF08B90020029087
:104F800045464C46CDF814A02BE03CB105AA40465E
:104F90004946FFF74FFE05460C4622E0404649468B
:104FA00000F0E4F8DFF8E0B05746DBF808200292A2
:104FB000DBF8042015184AEB0104DBE9040100F0DA
:104FC000C9F8DBF8041048430090FFF7D1FE009ABF
:104FD00080187941CBE910012846214600F0BAF843
:104FE0000590012009F08CFB0746012002F0DCFE51
:104FF0004AF2A13101444FF47A70B1FBF0F007445A
:1050000028462146FA37029A00F0C4F81E4901EBFF
:105010008A029268824200D810464863089A0AB110
:10502000C1E90454C1E906548B46049911B1CBF887
:10503000307001E0CBF830000120F07209F03EFB47
:1050400030812846214600F023F8B072DBF83000AA
:105050007060039848B1012030700C4A40464946C0
:1050600000F098F8C01B306103E086F800A0C6E9A4
:105070000454DBF83400B84203D301200BB0BDE880
:10508000F08F0020FAE70000580A00200040420F8D
:1050900070B50B4C05462078042808D1606800EBF9
:1050A00080004600FFF764FE281AB04204D3E0787F
:1050B00020B1FFF7A3FE08B1022070BD012070BD32
:1050C000580A002070B5144D95F8240005F14004ED
:1050D000002828780FD0052804D040F25E21212036
:1050E000FBF788FC204609F006FB78B12046BDE8B6
:1050F000704001F065BB052808D1204609F0FBFA95
:1051000020B9286A00F5067001F0AEFB2046BDE824
:10511000704001F0A9BB0000580A002010B5FEF74E
:10512000DBF80B490020887081F8240008620870C1
:10513000FEF766F80446007805F0ACFB10B12020BD
:10514000207010BD40F299312120FBF753FC000084
:10515000580A002010B50446FFF70AFE0249201A3B
:105160004968B0FBF1F010BD580A002010B50446A4
:10517000FFF7FEFD0649201A4C68B0FBF4F004FB73
:1051800000F4FFF7F5FD001941F1000110BD00002A
:10519000580A00200A4B10B5D3E90A43201A63EBE2
:1051A000010300242146241A994106DA0021141A29
:1051B00071EB030400DA104610BD002010BD0000A2
:1051C000580A002001000000010000001027000024
:1051D0001027000010B502F0EFFC05494A68824232
:1051E00001D3087808B1002010BD012010BD0000D7
:1051F000E8000020024900200860486000F044B840
:10520000E800002010B5040005D094F8400228B151
:1052100040F2A31108E04FF4D17105E094F8410287
:10522000202804D04FF4D2713520FBF7E3FB214650
:10523000054805F069FC84F84102202801D00020CF
:1052400010BD0D2010BD00002DE800000149487080
:1052500070470000E800002070B5054609484FF48B
:105260007A71B0FBF1F409F040FA0119284601F512
:10527000A07108F058FC40F64801884200D3084667
:1052800080B270BDF92201002DE9FC411E4E0120C3
:10529000307000244FF6FF7716E00021FBF7D6FDB3
:1052A000050017D095F8410205F016FB85F840423D
:1052B00095F8410205F0EEFA78B1202085F8410218
:1052C00005F5067001F0D0FA204664F31740CDE9E9
:1052D000004010E04FF4E87101E040F2BF113520CA
:1052E000FBF788FB009830B190F8401219B10088A4
:1052F000B842D2D104E06846FBF710FE0028F1D096
:105300003470BDE8FC810000E800002010B50446C0
:10531000012902D10A48007840B1042084F84002F3
:1053200002F056FCBDE8104005F012BC002201213D
:10533000204609F078FB34F89C0F401C2080EFE7F2
:10534000E800002010B50446084602F02DFD06498D
:1053500000F29D7031F8141008444FF47A71B0FBDC
:10536000F1F000F5A07010BD74EA00002DE9F041E5
:10537000064609F0BAF900F2411084B296F86B00C3
:10538000282109F051FA1D4F04EB0008787808B184
:10539000346904E0F46A3069A04200D2044606F1A0
:1053A0002C0008F0CBFB054609F09FF90544641B6F
:1053B000002C00DC0024022004F060FB844200D3B7
:1053C00004460221204604F061FA00B9254409F0A0
:1053D0008CF92C1A424629463046A4F5987408F0F8
:1053E0004CFB7860204605F093FC002803D1FB219C
:1053F0003520FBF7FFFABDE8F0810000E80000204F
:1054000006480549016506494165074805490165A2
:1054100006494165704700005FDE0000040100207E
:1054200057DF000033DF0000B001002011EC000066
:1054300070B50546B0F8D60095F8A910C9B1B5F811
:10544000D8100C1AB4F1040495F8D40040B195F8C2
:10545000A5200023092105F1880008F039F860B182
:10546000284609F08DFC38B1D5E93210401A001FEA
:1054700003E0C0F10204E7E72046A04200DA044658
:10548000002C01DC002070BDA0B270BD1D481C497D
:1054900081601D49C1611D49C1621D4901611D49EC
:1054A00041611D4941641D4981611D4901631D49D7
:1054B00041621D49C1641D4981641D4941631D4903
:1054C00081631E481C4981601D49C1611D490162FB
:1054D0001D4941601D4901601D4981621D49C1622C
:1054E0001D49C1601D4981611D4901631D498164D8
:1054F0001D49C1641D4941641D4941627047000056
:10550000F1DD0000040100208964000059E0000082
:1055100023E0000079E0000051EB0000812C000046
:105520002D2E00006D2D000097E1000041E10000EC
:1055300045640000FD2C00001DDE0000B0010020CD
:105540005FED00000DEC00007FEB0000A9EB000018
:1055500049EC00007BEC0000D3EB000041ED0000C3
:105560007DED000073E10000BDE100001FED0000D3
:1055700045EC00000648054981650649C1650748B4
:105580000549816506490166704700000BFD000072
:1055900004010020F9FD000061FE0000B0010020C0
:1055A000A1EC0000F8B5384D0026A5F10C072E70CF
:1055B00068607E807E7004463E700088FCF708F8C4
:1055C00068680088FBF7ACFFB4F84202401C82B266
:1055D000686800F188030146184608F0ADF820B16C
:1055E0004FF4C7713620FBF705FAA4F8426294F82D
:1055F000A60025280AD1B4F89C00B4F85812401A25
:1056000000B2002802DB84F8A66011E094F8A5003F
:10561000252803D0262801D027280CD1B4F89C00D7
:10562000B4F85812401A00B2002804DB84F8A560D0
:1056300000F0AAFE18B100F02DFD30B122E00021EB
:10564000084600F0CFFC0020F8BD6868883009F0FB
:105650004FFA20B1686890F82E0100F0BFFB0B48AC
:105660000090D7E903010A4B0A4AFCF73BF8686847
:105670000023052190F8A520883007F029FF08B104
:10568000FCF72AF80120F8BDFC000020E55F0000CF
:105690007558000001630000F8B50D460446002669
:1056A00051E000BFB4F84202401CA4F84202B4F832
:1056B000D600401CA4F8D600204609F061FB98B142
:1056C000D4F8C800401CC4F8C800204609F031FADC
:1056D000D4E93201884207D302221D4904F25F1047
:1056E000C4F8C86008F0A7F994F8E00020B1B4F855
:1056F000DC00401CA4F8DC0094F8E40020B1B4F80D
:10570000E200401CA4F8E20094F838018DF8000093
:10571000009800909DF8000040B994F8A72000235D
:10572000012104F1880007F0D3FE20B1B4F8DA00BB
:10573000401CA4F8DA00204600F018FAB4F89C00E7
:10574000401CA4F89C006D1EADB2ABD2F8BD0000A9
:1057500033E100001144C2780C48891D89B24068C9
:10576000012A06D042B1182A05D190F85A2232B146
:1057700009E0A0F856127047A0F85E12704790F842
:105780005B2202B90021A0F858127047FC000020EB
:105790000B49C2784968012A06D05AB1182A08D1A3
:1057A000B1F8581208F0DDB8B1F856124172090A82
:1057B00081727047B1F85E124173090A81737047B4
:1057C000FC0000207CB52A4C00231946606890F844
:1057D000A520883007F07CFE002848D0606890F84B
:1057E00054128DF80010009900919DF800100025CA
:1057F00000293CD090F8A60008F0AEFA002836D177
:105800006068B0F89C000A2831D96846FCF746FE6B
:1058100000282CD0616805226846AE310AF0D9FD17
:1058200010B36068D0F85012087858B10522684665
:10583000491C0AF0CEFD002819D16068D0F850024A
:10584000007840B960680099D0F85002C0F80110A3
:105850009DF8041041716068D0F850020178491C2D
:105860000170012000F0DCFD606880F854527CBDBE
:10587000FC0000200C4A5178A1B902F10C0101286A
:10588000496808D09078400703D591F8A70006280A
:1058900008D001207047B1F85000898E884201D8A5
:1058A000FFF798BC00207047F000002038B5914CFD
:1058B0006068883009F01CF9002862D16068002314
:1058C000012190F8A720883007F002FE002858D167
:1058D000606890F838118DF80010009900919DF8DB
:1058E000001009B1022042E0002590F8A5202B46C7
:1058F0002946883007F0ECFD28B1606890F8D400A4
:1059000008B1122033E0606890F8A520192A27D04A
:1059100006DC032A26D0122A1ED0132A04D119E04D
:10592000242A28D02F2A2DD000230421883007F0E4
:10593000CFFD002825D1606890F8A6101E2946D01A
:1059400027DC012934D002293FD003292AD0042999
:105950003AD1B3E00B200AE0BDE8384000F090BC3B
:10596000062004E090F8291180F830110720BDE8E6
:10597000384000F055BD182000F052FD6068A0F8D6
:10598000DC5038BD012000F053FD606880F8A55060
:1059900038BD1F291BD022295ED0282973D02F297A
:1059A0007BD187E090F8281180F83011072088E03B
:1059B0000C2000F035FD606820F8E25F417941F08D
:1059C0000101417100F83C5C67E0132036E090F87B
:1059D0003B218DF80020009A00929DF80020AABB80
:1059E00090F83A218DF80020009A00929DF800204E
:1059F0006AB325292ED090F8A51025292AD026296A
:105A000028D0002300F25A2200F59D7108F027F8F3
:105A100060681F2180F8A61080F83A51606808F08D
:105A200039F8344808F0D5FA616801F12C00C28BCE
:105A3000A1F83021408CA1F83201152000F0F0FCD3
:105A40006068A0F8E25000BF80F8A65025E01F294A
:105A5000E4D022E00123D5E790F84411012908D1D0
:105A600090F845118DF80010009900919DF80010F4
:105A700021B190F84411022906D00EE0D0F862203E
:105A8000D0F8461103E01BE050F8622F4168194836
:105A90000AF001FA182000F0C3FC6068883009F0B1
:105AA00027F800287FF474AF6068883009F020F888
:105AB00058B115E0002000F0BBFC04E0092000E034
:105AC000242000F0ADFC6068BEE760680023194642
:105AD00090F8A520883007F0FBFC08B100F004FB2B
